:020000040800F2
:1000000000A00020ED1F0008F11E0008F31E0008EC
:10001000F51E0008F71E0008F91E00080000000089
:10002000000000000000000000000000FB1E0008AF
:10003000FD1E000800000000FF1E0008011F000850
:100040003D2000083D2000083D2000083D2000081C
:100050003D2000083D2000083D200008091F000841
:100060003D2000083D200008131F00083D20000827
:100070003D2000083D2000083D2000083D200008EC
:100080003D2000083D2000083D2000083D200008DC
:100090001D1F00083D2000083D2000083D200008ED
:1000A0003D2000083D2000083D2000083D200008BC
:1000B0003D2000083D2000083D2000083D200008AC
:1000C0003D2000083D2000083D2000083D2000089C
:1000D0003D2000083D2000083D2000083D2000088C
:1000E0003D2000083D2000083D2000083D2000087C
:1000F0003D2000083D2000083D2000083D2000086C
:100100000000000000000000000000003D2000088A
:100110003D2000083D2000083D2000083D2000084B
:100120003D2000083D2000083D2000083D2000083B
:100130003D2000083D2000080000000000000000F5
:100140003D2000083D2000083D2000080000000080
:10015000000000000000000000000000000000009F
:1001600000000000000000003D2000083D200008C5
:100170003D2000080000000000000000000000001A
:08018000000000003D20000812
:1001C00081F0004102E000BF83F0004330B54FEA08
:1001D00041044FEA430594EA050F08BF90EA020F75
:1001E0001FBF54EA000C55EA020C7FEA645C7FEA08
:1001F000655C00F0E2804FEA5454D4EB5555B8BF2B
:100200006D420CDD2C4480EA020281EA030382EA9B
:10021000000083EA010180EA020281EA0303362D2D
:1002200088BF30BD11F0004F4FEA01314FF4801C00
:100230004CEA113102D0404261EB410113F0004F12
:100240004FEA03334CEA133302D0524263EB4303C9
:1002500094EA050F00F0A780A4F10104D5F1200E67
:100260000DDB02FA0EFC22FA05F2801841F10001C2
:1002700003FA0EF2801843FA05F359410EE0A5F196
:1002800020050EF1200E012A03FA0EFC28BF4CF0C7
:10029000020C43FA05F3C01851EBE37101F000457D
:1002A00007D54FF0000EDCF1000C7EEB00006EEB8A
:1002B0000101B1F5801F1BD3B1F5001F0CD3490814
:1002C0005FEA30004FEA3C0C04F101044FEA44526B
:1002D00012F5800F80F09A80BCF1004F08BF5FEAF2
:1002E000500C50F1000041EB045141EA050130BDD2
:1002F0005FEA4C0C404141EB0101013C28BFB1F5E4
:10030000801FE9D291F0000F04BF01460020B1FA2E
:1003100081F308BF2033A3F10B03B3F120020CDA01
:100320000C3208DD02F1140CC2F10C0201FA0CF0DF
:1003300021FA02F10CE002F11402D8BFC2F1200C44
:1003400001FA02F120FA0CFCDCBF41EA0C019040FA
:10035000E41AA2BF01EB0451294330BD6FEA040443
:100360001F3C1CDA0C340EDC04F11404C4F120022E
:1003700020FA04F001FA02F340EA030021FA04F340
:1003800045EA030130BDC4F10C04C4F1200220FA97
:1003900002F001FA04F340EA0300294630BD21FAD5
:1003A00004F0294630BD94F0000F83F4801306BF9B
:1003B00081F480110134013D4EE77FEA645C18BF8F
:1003C0007FEA655C29D094EA050F08BF90EA020F26
:1003D00005D054EA000C04BF1946104630BD91EA1E
:1003E000030F1EBF0021002030BD5FEA545C05D121
:1003F0004000494128BF41F0004130BD14F5800460
:100400003CBF01F5801130BD01F0004545F0FE41D3
:1004100041F470014FF0000030BD7FEA645C1ABF08
:10042000194610467FEA655C1CBF0B46024650EA3F
:10043000013406BF52EA033591EA030F41F400216B
:1004400030BD00BF90F0000F04BF0021704730B5F1
:100450004FF4806404F132044FF000054FF00001C6
:1004600050E700BF90F0000F04BF0021704730B587
:100470004FF4806404F1320410F0004548BF40425C
:100480004FF000013EE700BF42004FEAE2014FEAB1
:1004900031014FEA02701FBF12F07F4393F07F4F8C
:1004A00081F06051704732F07F4208BF704793F08F
:1004B0007F4F04BF41F40021704730B54FF46074A2
:1004C00001F0004521F000411CE700BF50EA0102A5
:1004D00008BF704730B54FF000050AE050EA01024E
:1004E00008BF704730B511F0004502D5404261EBBE
:1004F00041014FF4806404F132045FEA915C3FF4FF
:10050000D8AE4FF003025FEADC0C18BF03325FEA9B
:10051000DC0C18BF033202EBDC02C2F1200300FA4C
:1005200003FC20FA02F001FA03FE40EA0E0021FA71
:1005300002F11444BDE600BF4FEA4102B2F1E043CC
:1005400024BFB3F5001CDCF1FE5C0DD901F0004CBA
:100550004FEAC0024CEA5070B2F1004F40EB83000A
:1005600008BF20F00100704711F0804F21D113F136
:100570003872BCBF01F00040704741F480114FEA6F
:100580005252C2F11802C2F1200C10FA0CF320FAF8
:1005900002F018BF40F001004FEAC1234FEAD32315
:1005A00003FA0CFC40EA0C0023FA02F34FEA43037F
:1005B000CCE77FEA625307D150EA01331EBF4FF008
:1005C000FE4040F44000704701F0004040F0FE4023
:1005D00040F40000704700BF80F0004002E000BF20
:1005E00081F0004142001FBF5FEA410392EA030F1E
:1005F0007FEA226C7FEA236C6AD04FEA1262D2EB68
:100600001363C1BFD218414048404140B8BF5B426C
:10061000192B88BF704710F0004F40F4000020F005
:100620007F4018BF404211F0004F41F4000121F01B
:100630007F4118BF494292EA030F3FD0A2F1010265
:1006400041FA03FC10EB0C00C3F1200301FA03F1A3
:1006500000F0004302D5494260EB4000B0F5000FC6
:1006600013D3B0F1807F06D340084FEA310102F185
:100670000102FE2A51D2B1F1004F40EBC25008BF37
:1006800020F0010040EA03007047490040EB000001
:10069000013A28BFB0F5000FEDD2B0FA80FCACF102
:1006A000080CB2EB0C0200FA0CF0AABF00EBC2502F
:1006B00052421843BCBFD0401843704792F0000F1D
:1006C00081F4000106BF80F400000132013BB5E770
:1006D0004FEA41037FEA226C18BF7FEA236C21D0E6
:1006E00092EA030F04D092F0000F08BF084670474B
:1006F00090EA010F1CBF0020704712F07F4F04D119
:10070000400028BF40F00040704712F100723CBF2B
:1007100000F50000704700F0004343F0FE4040F455
:10072000000070477FEA226216BF08467FEA236313
:100730000146420206BF5FEA412390EA010F40F4FE
:10074000800070474FF0000304E000BF10F000434A
:1007500048BF40425FEA000C08BF704743F0964331
:1007600001464FF000001CE050EA010208BF70474C
:100770004FF000030AE000BF50EA010208BF7047D3
:1007800011F0004302D5404261EB41015FEA010CE8
:1007900002BF84460146002043F0B64308BFA3F1E0
:1007A0008053A3F50003BCFA8CF2083AA3EBC253C2
:1007B00010DB01FA02FC634400FA02FCC2F12002E1
:1007C000BCF1004F20FA02F243EB020008BF20F018
:1007D0000100704702F1200201FA02FCC2F120027E
:1007E00050EA4C0021FA02F243EB020008BF20EA73
:1007F000DC7070474FF0FF3C06E000BF4FF0010C8B
:1008000002E000BF4FF0010C4DF804CD4FEA40026A
:100810004FEA41037FEA226C18BF7FEA236C11D0B4
:1008200001B052EA530C18BF90EA010F58BFB2EB67
:10083000030088BFC81738BF6FEAE17018BF40F0E7
:10084000010070477FEA226C02D15FEA402C05D19B
:100850007FEA236CE4D15FEA412CE1D05DF8040B20
:10086000704700BF844608466146FFE70FB5FFF7B3
:10087000C9FF002848BF10F1000F0FBD4DF808ED6B
:10088000FFF7F4FF0CBF012000205DF808FB00BF5C
:100890004DF808EDFFF7EAFF34BF012000205DF8B6
:1008A00008FB00BF4DF808EDFFF7E0FF94BF012003
:1008B00000205DF808FB00BF4DF808EDFFF7D2FF00
:1008C00094BF012000205DF808FB00BF4DF808ED43
:1008D000FFF7C8FF34BF012000205DF808FB00BF10
:1008E0000000000000000000000000000000000008
:1008F00000000000000000000000000000000000F8
:1009000030B490F800F020F007016FF0000C10F008
:10091000070491F820F040F048804FF000046FF099
:100920000700D1E9002391F840F000F1080082FAB5
:100930004CF2A4FA8CF283FA4CF3A2FA8CF34BBB80
:10094000D1E9022382FA4CF200F10800A4FA8CF2F9
:1009500083FA4CF3A2FA8CF3E3B9D1E9042382FAC7
:100960004CF200F10800A4FA8CF283FA4CF3A2FADC
:100970008CF37BB9D1E9062301F1200182FA4CF214
:1009800000F10800A4FA8CF283FA4CF3A2FA8CF37B
:10099000002BC6D0002A04BF04301A4612BAB2FA9D
:1009A00082F200EBD20030BC7047D1E9002304F0A2
:1009B0000305C4F100004FEAC50514F0040F91F8D7
:1009C00040F00CFA05F562EA05021CBF63EA050374
:1009D00062464FF00004AAE700000000000000009B
:1009E00001F0FF01102A2BDB10F0070F08D010F8E0
:1009F000013B013A8B422DD010F0070F42B3F6D1E4
:100A0000F0B441EA012141EA014122F007047FF0FC
:100A100000070023F0E80256083C85EA010586EA53
:100A2000010685FA47F5A3FA87F586FA47F6A5FA8F
:100A300087F68EB9EED1F0BC01F0FF0102F007029B
:100A400032B110F8013B013A83EA010313B1F8D146
:100A50000020704701387047002D06BF3546033827
:100A6000073815F0010F07D1013015F4807F02BF60
:100A7000013015F4C03F01300138F0BC704700BFB1
:100A8000844641EA000313F003036DD1403A41D399
:100A900051F8043B40F8043B51F8043B40F8043B58
:100AA00051F8043B40F8043B51F8043B40F8043B48
:100AB00051F8043B40F8043B51F8043B40F8043B38
:100AC00051F8043B40F8043B51F8043B40F8043B28
:100AD00051F8043B40F8043B51F8043B40F8043B18
:100AE00051F8043B40F8043B51F8043B40F8043B08
:100AF00051F8043B40F8043B51F8043B40F8043BF8
:100B000051F8043B40F8043B51F8043B40F8043BE7
:100B1000403ABDD2303211D351F8043B40F8043B87
:100B200051F8043B40F8043B51F8043B40F8043BC7
:100B300051F8043B40F8043B103AEDD20C3205D397
:100B400051F8043B40F8043B043AF9D2043208D08F
:100B5000D2071CBF11F8013B00F8013B01D30B8801
:100B600003806046704700BF082A13D38B078DD0DF
:100B700010F003038AD0C3F10403D21ADB071CBFB1
:100B800011F8013B00F8013B80D331F8023B20F81B
:100B9000023B7BE7043AD9D3013A11F8013B00F854
:100BA000013BF9D20B7803704B7843708B788370DC
:100BB0006046704770B54FF0FF0C4CF4E06C1CEAD7
:100BC00011541DBF1CEA135594EA0C0F95EA0C0F43
:100BD00000F0DEF82C4481EA030621EA4C5123EAB6
:100BE0004C5350EA013518BF52EA033541F48011E5
:100BF00043F4801338D0A0FB02CE4FF00005E1FB98
:100C000002E506F00042E0FB03E54FF00006E1FBE1
:100C100003569CF0000F18BF4EF0010EA4F1FF0424
:100C2000B6F5007F64F5407404D25FEA4E0E6D4164
:100C300046EB060642EAC62141EA55514FEAC52075
:100C400040EA5E504FEACE2EB4F1FD0C88BFBCF5F1
:100C5000E06F1ED8BEF1004F08BF5FEA500E50F1A2
:100C6000000041EB045170BD06F0004646EA010168
:100C700040EA020081EA0301B4EB5C04C2BFD4EB9A
:100C80000C0541EA045170BD41F480114FF0000E93
:100C9000013C00F3AB8014F1360FDEBF002001F001
:100CA000004170BDC4F10004203C35DA0C341BDC7B
:100CB00004F11404C4F1200500FA05F320FA04F04D
:100CC00001FA05F240EA020001F0004221F0004181
:100CD00010EBD37021FA04F642EB06015EEA430EF4
:100CE00008BF20EAD37070BDC4F10C04C4F1200524
:100CF00000FA04F320FA05F001FA04F240EA0200D7
:100D000001F0004110EBD37041F100015EEA430EA7
:100D100008BF20EAD37070BDC4F1200500FA05F2C7
:100D20004EEA020E20FA04F301FA05F243EA020346
:100D300021FA04F001F0004121FA04F220EA020055
:100D400000EBD3705EEA430E08BF20EAD37070BD9B
:100D500094F0000F0FD101F00046400041EB01017B
:100D600011F4801F08BF013CF7D041EA060195F05D
:100D7000000F18BF704703F00046520043EB030317
:100D800013F4801F08BF013DF7D043EA0603704704
:100D900094EA0C0F0CEA135518BF95EA0C0F0CD00F
:100DA00050EA410618BF52EA4306D1D181EA030155
:100DB00001F000414FF0000070BD50EA410606BF4F
:100DC0001046194652EA430619D094EA0C0F02D194
:100DD00050EA013613D195EA0C0F05D152EA0336D9
:100DE0001CBF104619460AD181EA030101F00041F7
:100DF00041F0FE4141F470014FF0000070BD41F040
:100E0000FE4141F4780170BD70B54FF0FF0C4CF419
:100E1000E06C1CEA11541DBF1CEA135594EA0C0F38
:100E200095EA0C0F00F0A7F8A4EB050481EA030E85
:100E300052EA03354FEA013100F088804FEA03336C
:100E40004FF0805545EA131343EA12634FEA02223A
:100E500045EA111545EA10654FEA00260EF00041FB
:100E60009D4208BF964244F1FD0404F5407402D24D
:100E70005B084FEA3202B61A65EB03055B084FEADE
:100E800032024FF480104FF4002CB6EB020E75EBDB
:100E9000030E22BFB61A754640EA0C005B084FEA03
:100EA0003202B6EB020E75EB030E22BFB61A754680
:100EB00040EA5C005B084FEA3202B6EB020E75EBCB
:100EC000030E22BFB61A754640EA9C005B084FEA43
:100ED0003202B6EB020E75EB030E22BFB61A754650
:100EE00040EADC0055EA060E18D04FEA051545EA3F
:100EF00016754FEA06164FEAC30343EA52734FEAE8
:100F0000C2025FEA1C1CC0D111F4801F0BD141EA60
:100F100000014FF000004FF0004CB6E711F4801FC5
:100F200004BF01430020B4F1FD0C88BFBCF5E06FA5
:100F30003FF6AFAEB5EB030C04BFB6EB020C5FEAB5
:100F4000500C50F1000041EB045170BD0EF0004E0A
:100F50004EEA113114EB5C04C2BFD4EB0C0541EA3C
:100F6000045170BD41F480114FF0000E013C90E639
:100F700045EA060E8DE60CEA135594EA0C0F08BFFD
:100F800095EA0C0F3FF43BAF94EA0C0F0AD150EAFC
:100F900001347FF434AF95EA0C0F7FF425AF10468F
:100FA00019462CE795EA0C0F06D152EA03353FF4B7
:100FB000FDAE1046194622E750EA410618BF52EA34
:100FC00043067FF4C5AE50EA41047FF40DAF52EA08
:100FD00043057FF4EBAE12E74FF0FF3C06E000BFA5
:100FE0004FF0010C02E000BF4FF0010C4DF804CDB2
:100FF0004FEA410C7FEA6C5C4FEA430C18BF7FEA72
:101000006C5C1BD001B050EA410C0CBF52EA430C9F
:1010100091EA030F02BF90EA020F0020704710F11F
:10102000000F91EA030F58BF994208BF90422CBFAE
:10103000D8176FEAE37040F0010070474FEA410CA7
:101040007FEA6C5C02D150EA013C07D14FEA430CC5
:101050007FEA6C5CD6D152EA033CD3D05DF8040B36
:10106000704700BF8446104662468C461946634668
:1010700000E000BF01B5FFF7B7FF002848BF10F13F
:10108000000F01BD4DF808EDFFF7F4FF0CBF012084
:1010900000205DF808FB00BF4DF808EDFFF7EAFF00
:1010A00034BF012000205DF808FB00BF4DF808EDBB
:1010B000FFF7E0FF94BF012000205DF808FB00BFB0
:1010C0004DF808EDFFF7CEFF94BF012000205DF83A
:1010D00008FB00BF4DF808EDFFF7C4FF34BF012047
:1010E00000205DF808FB00BF4FEA410C7FEA6C5C12
:1010F00002D150EA013C0AD14FEA430C7FEA6C5C12
:1011000002D152EA033C02D14FF0000070474FF089
:10111000010070474FEA410212F5001215D211D5B5
:101120006FF47873B3EB625212D94FEAC12343F0E4
:10113000004343EA505311F0004F23FA02F018BF66
:10114000404270474FF00000704750EA013005D12F
:1011500011F0004008BF6FF0004070474FF00000F2
:10116000704700BF4FF0FF0C1CEAD0521EBF1CEAB4
:10117000D15392EA0C0F93EA0C0F6FD01A4480EA15
:10118000010C400218BF5FEA41211ED04FF00063FE
:1011900043EA501043EA5111A0FB01310CF000402A
:1011A000B1F5000F3EBF490041EAD3715B0040EA50
:1011B000010062F17F02FD2A1DD8B3F1004F40EB20
:1011C000C25008BF20F00100704790F0000F0CF0F3
:1011D000004C08BF49024CEA502040EA51207F3AB7
:1011E000C2BFD2F1FF0340EAC250704740F4000092
:1011F0004FF00003013A5DDC12F1190FDCBF00F083
:1012000000407047C2F10002410021FA02F1C2F130
:10121000200200FA02FC5FEA310040F1000053EACC
:101220004C0308BF20EADC70704792F0000F00F01A
:10123000004C02BF400010F4000F013AF9D040EA20
:101240000C0093F0000F01F0004C02BF490011F4B4
:10125000000F013BF9D041EA0C018FE70CEAD153B2
:1012600092EA0C0F18BF93EA0C0F0AD030F0004C32
:1012700018BF31F0004CD8D180EA010000F00040E6
:10128000704790F0000F17BF90F0004F084691F0A4
:10129000000F91F0004F14D092EA0C0F01D14202DE
:1012A0000FD193EA0C0F03D14B0218BF084608D1A7
:1012B00080EA010000F0004040F0FE4040F40000F1
:1012C000704740F0FE4040F4400070474FF0FF0C84
:1012D0001CEAD0521EBF1CEAD15392EA0C0F93EACB
:1012E0000C0F69D0A2EB030280EA010C49024FEA1D
:1012F000402037D04FF0805343EA111143EA1013D6
:101300000CF000408B4238BF5B0042F17D024FF48D
:10131000000C8B4224BF5B1A40EA0C00B3EB510F68
:1013200024BFA3EB510340EA5C00B3EB910F24BF51
:10133000A3EB910340EA9C00B3EBD10F24BFA3EBD6
:10134000D10340EADC001B0118BF5FEA1C1CE0D19E
:10135000FD2A3FF650AF8B4240EBC25008BF20F051
:10136000010070470CF0004C4CEA50207F32C2BFA5
:10137000D2F1FF0340EAC250704740F400004FF042
:101380000003013A37E792F0000F00F0004C02BF73
:10139000400010F4000F013AF9D040EA0C0093F03D
:1013A000000F01F0004C02BF490011F4000F013B97
:1013B000F9D041EA0C0195E70CEAD15392EA0C0FFF
:1013C00008D142027FF47DAF93EA0C0F7FF470AF37
:1013D000084676E793EA0C0F04D14B023FF44CAF7A
:1013E00008466EE730F0004C18BF31F0004CCAD10F
:1013F00030F000427FF45CAF31F000437FF43CAF4B
:101400005FE700BF4FEA40024FEA41037FEA226CE8
:1014100002D15FEA402C08D17FEA236C02D15FEA57
:10142000412C02D14FF0000070474FF0010070478F
:101430000348044B834202D0034B03B11847704763
:101440006408002064080020000000000548064BE6
:101450001B1AD90F01EBA301491002D0034B03B1B2
:10146000184770476408002064080020000000004E
:1014700010B5064C237843B9FFF7DAFF044B13B1DC
:101480000448AFF300800123237010BD64080020DE
:10149000000000008CD8000808B5054B1BB10549B9
:1014A0000548AFF30080BDE80840FFF7CFBF00BF9D
:1014B00000000000680800208CD8000870B58AB0D1
:1014C000002405940694079408940994364B5A69AD
:1014D00042F400125A615A6902F400120092009A12
:1014E0005A6942F400225A615A6902F400220192B8
:1014F000019A5A6942F480025A615A6902F48002E0
:101500000292029A5A6942F400325A615A6902F40C
:1015100000320392039A5A6942F480225A615B694D
:1015200003F480230493049B204D22464FF6087158
:10153000284600F04AFF252305934FF490130693A5
:10154000079405A9284600F051FE4FF6087305934D
:10155000012606960794089405A9284600F046FE41
:10156000122305934FF488130693079405A9284680
:1015700000F03CFE05960694079405A94FF09040B4
:1015800000F034FE22462146072000F0FDFD072032
:1015900000F00AFE224621460A2000F0F5FD0A204E
:1015A00000F002FE0AB070BD0010024000100048BA
:1015B000002301E000BF0133B3F5167FFAD3704773
:1015C00030B583B08DF807008DF80610104C00225E
:1015D0000821204600F0F9FEFFF7EAFF0D4D0A232F
:1015E00001220DF10701284603F0CAF9FFF7E0FFD9
:1015F0000A2301220DF10601284603F0C1F9012258
:101600000821204600F0E1FEFFF7D2FF03B030BD15
:10161000001000489008002030B585B08DF8070014
:10162000C3B263F07F038DF80730124C002208210B
:10163000204600F0CAFEFFF7BBFF0F4D0A23012230
:101640000DF10701284603F09BF9FFF7B1FF0A23CC
:1016500001220DF10F01284603F002FCFFF7A8FF5D
:1016600001220821204600F0B0FE9DF80F0005B0D1
:1016700030BD00BF001000489008002000B587B0C2
:101680008DF8172040000A230293012301930DF1E6
:10169000170200920A4600F0FE01034801F086F8A6
:1016A00007B05DF804FB00BFF408002000B587B068
:1016B0000A4640000A230293012301930DF117010A
:1016C000009100F0FE01044801F044F99DF8170074
:1016D00007B05DF804FB00BFF408002008B50F2038
:1016E000FFF79AFF00F12D03DBB2012B00D9FEE7D3
:1016F0000F212020FFF764FF10212320FFF760FF58
:1017000008212220FFF75CFF08BD08B50A2000F081
:10171000E1FC73224F211E20FFF7B0FF642000F090
:10172000D9FC572220211920FFF7A8FF10222221DF
:101730001920FFF7A3FF882223211920FFF79EFF1E
:1017400008BD38B504462920FFF766FF05022820AA
:10175000FFF762FF00B2284320802B20FFF75CFFD9
:1017600005022A20FFF758FF00B2284360802D2091
:10177000FFF752FF05022C20FFF74EFF00B228436F
:10178000A08038BD70B505460E4600240AE036F943
:101790001400FEF7DBFF0949FFF7E4FC45F82400DD
:1017A0000134E4B2022CF2D92B686A6802F10042DB
:1017B0002A6003F100436B6070BD00BF295C0F3DE0
:1017C00038B5044629211920FFF770FF05022821AA
:1017D0001920FFF76BFF00B2284320802B2119202E
:1017E000FFF764FF05022A211920FFF75FFF00B20F
:1017F000284360802D211920FFF758FF05022C2176
:101800001920FFF753FF00B22843A08038BD000025
:1018100070B505460E4600240AE036F91400FEF7BE
:1018200095FF0749FFF79EFC45F824000134E4B218
:10183000022CF2D96B6803F100436B6070BD00BFEE
:101840006F12833A00000000F0B587B0424C214689
:1018500003A8FFF7DDFFA11F6846FFF793FF039F73
:10186000049E31463046FFF77DFC0546059801464B
:10187000FFF778FC044601462846FEF7B3FE0BF05E
:10188000CDFD014638460BF0C7FDFEF7FDFD30A348
:10189000D3E90023FFF78EF9FEF74EFE05463946E1
:1018A0003846FFF75FFC01462046FEF79BFE0BF033
:1018B000B5FD014630460BF0AFFDFEF7E5FD24A374
:1018C000D3E90023FFF776F9FEF736FE044620F051
:1018D0000040224B1968FEF7F9FF30B10021204685
:1018E000FEF7F4FF60B3012400E00024009E26F020
:1018F00000401B4B1968FEF7E9FF30B1002130466C
:10190000FEF7E4FFF0B144F00404019820F0004039
:10191000144B1968FEF7DAFF08B144F0100425F003
:101920000040114B1968FEF7D1FF30B10021284665
:10193000FEF7CCFF48B144F02004204607B0F0BDCC
:101940000224D3E744F00804DFE744F04004F4E75E
:10195000F8C1631ADCA54C40860800202000002056
:1019600028000020240000201C00002010B582B0B8
:10197000022803D0102814D002B010BD4FF400612B
:10198000124800F027FD6C462046FFF7DAFE104BA8
:1019900094E80300186099801A7B42F001021A73E0
:1019A000EAE74FF48061094800F014FD6846FFF74C
:1019B00007FF074B0098C3F80600BDF804205A81C2
:1019C0001A7B42F002021A73D6E700BF00100048EB
:1019D0008008002072B6FEE708B51148114B03607D
:1019E00040F20B234360002383600122C260036145
:1019F00043618361C361036200F07AFE50B9002144
:101A0000074801F07FF838B90021054801F0A8F82F
:101A100020B908BDFFF7DEFFFFF7DCFFFFF7DAFFB5
:101A2000F40800200054004008B51048104B036033
:101A30004FF482734360002383604FF4E062C2601E
:101A400002220261012242614FF40072826110227F
:101A5000C2610362436283620722C262036343631B
:101A600002F01AFF00B908BDFFF7B4FF900800208C
:101A70000030014000B59FB02822002114A805F0D5
:101A8000F1FB00210F9110911191129113913C22C1
:101A9000684605F0E7FB032314934FF4A023159346
:101AA000012318931023199302231B934FF48033BF
:101AB0001C934FF4E0131D9314A802F04BF8C8B91F
:101AC0000F230F9302211091002311934FF4806292
:101AD000129213930FA802F08DFB68B9084B009384
:101AE000002307930E93684602F058FC30B91FB0EC
:101AF0005DF804FBFFF76EFFFFF76CFFFFF76AFF6F
:101B000020000200000000002DE9F04FDDB000F0E1
:101B1000BDFAFFF7AFFFFFF7D1FCFFF75DFFFFF75F
:101B200083FF05F017F8A44B1A68136843F04003CD
:101B30001360A24B1A68136843F00103136001227B
:101B400008219F4800F041FCFFF7C8FDFFF7DDFDCD
:101B500056A8FFF7F6FD56A8FFF732FE4AF6AB236C
:101B6000ADF860314AF6AB43ADF8503100252C4654
:101B7000C3E00134E4B2092C04D1012402E01E20A8
:101B800000F0A8FA01214FF0904000F017FC002867
:101B9000F5D1BAE0ADF8625113460CE09A1CD2B20E
:101BA000884901EB4301C9885CA800EB420222F896
:101BB000101C0133DBB2022BF0D900230BE05A1DBD
:101BC000D2B2804931F813105CA800EB420222F82F
:101BD000101C0133DBB2022BF1D9102158A805F0FB
:101BE00009F888E0784E314612A8FFF711FEB11FC0
:101BF00015A8FFF7C7FD129F139E31463046FFF729
:101C0000B1FA8246DDF8508041464046FFF7AAFA15
:101C1000814601465046FEF7E5FC0BF0FFFB01460E
:101C200038460BF0F9FBFEF72FFC61A3D3E9002344
:101C3000FEF7C0FFFEF780FC0E9039463846FFF7EE
:101C400091FA01464846FEF7CDFC0BF0E7FB014652
:101C500030460BF0E1FBFEF717FC55A3D3E9002358
:101C6000FEF7A8FFFEF768FC0F90DDF85490DDF852
:101C700058A0DDF85CB03846FEF706FCCDE910014F
:101C80000E98FEF701FCCDE90C010F98FEF7FCFB66
:101C9000CDE90A015846FEF7F7FBCDE908015046A9
:101CA000FEF7F2FBCDE906014846FEF7EDFBCDE974
:101CB00004014046FEF7E8FBCDE902013046FEF79D
:101CC000E3FBCDE90001DDE91023404922A805F03E
:101CD00061FA22A8FEF714FE81B222A804F08AFF5E
:101CE00009E0ADF86251FFF7AFFDADF854010621F0
:101CF00054A804F07FFF0135ADB201214FF09040B0
:101D000000F05CFB00287FF434AF2E4B1B7B032BD1
:101D1000F3D12C4B00221A73012C3FF43BAF032C60
:101D20003FF460AF002CDCD0072CE4D1FFF78CFD32
:101D300010F0FF0737D1264B93E803001590ADF85C
:101D40005810090C8DF85A1015AB00933B462A46E3
:101D5000204922A805F01EFA22A8FEF7D1FD81B283
:101D600022A804F047FFC6E722AB15AA1A4910467D
:101D700005F010FA0136F6B2062EE5D847FA06F35A
:101D800013F0010FF6D0154B53F8261022A805F0DA
:101D900045FBB8F1000FE7D022A915A805F03EFBDE
:101DA0004FF00008E6E700264FF00108E4E700BF27
:101DB000F8C1631ADCA54C4090080020F40800200C
:101DC000001000488008002086080020A8D80008DD
:101DD00028D9000838D9000830D9000800000020B0
:101DE00000B583B00C4B9A6942F001029A619A697E
:101DF00002F001020092009ADA6942F08052DA6140
:101E0000DB6903F080530193019B072000F0AAF9DE
:101E100003B05DF804FB00BF0010024010B588B0AD
:101E20000023039304930593069307930268134BCF
:101E30009A4201D008B010BD114C636943F480236D
:101E40006361636903F480230193019BC0230393BF
:101E5000122304930123059303230693042307937A
:101E600003A9084800F0C2F9E36943F40013E361F1
:101E7000E36903F400130293029BDBE70054004084
:101E8000001002400004004800B589B0002303930D
:101E900004930593069307930268144B9A4202D069
:101EA00009B05DF804FB03F560439A6942F480527F
:101EB0009A619A6902F480520192019A5A6942F435
:101EC00000325A615B6903F400330293029BE02302
:101ED000039302230493032306930523079303A983
:101EE0004FF0904000F082F9DAE700BF0030014087
:101EF000FEE7FEE7FEE7FEE7FEE770477047704744
:101F000008B500F0D5F808BD08B5022000F06CFA5D
:101F100008BD08B5102000F067FA08BD08B50248F2
:101F200001F018FC08BD00BF3018002001207047E8
:101F300008B505F03DFA162303604FF0FF3008BDE9
:101F400008B54FF0FF31FFF7F3FFFEE770B50C4621
:101F50001646002506E0AFF30080214601F8010B8C
:101F600001350C46B542F6DB304670BD70B50C4607
:101F70001646002504E014F8010BAFF3008001358C
:101F8000B542F8DB304670BD4FF0FF3070474FF47C
:101F900000534B60002070470120704700207047BD
:101FA00010B503460C4A0D490D48006840B10C4875
:101FB00000680344521A934206D8094A136010BDC0
:101FC0000748084C0460F2E705F0F2F90C230360BF
:101FD0004FF0FF30F3E700BF00A000200004000036
:101FE00040090020301E002070470000DFF834D088
:101FF0000D480E490E4A002302E0D458C450043361
:10200000C4188C42F9D30B4A0B4C002301E0136037
:102010000432A242FBD3FFF7E7FF05F0CFF9FFF749
:1020200073FDFEE700A000200000002064080020EF
:1020300090DE000864080020301E0020FEE700004B
:1020400010B504460E4B1A784FF47A73B3FBF2F3D3
:102050000C4A1068B0FBF3F000F0B4F868B90F2C2C
:1020600001D901200AE0002221464FF0FF3000F0A4
:102070008BF8054B1C60002000E0012010BD00BF64
:10208000300000202C0000203400002008B5074A52
:10209000136843F010031360032000F063F800207E
:1020A000FFF7CEFFFFF79CFE002008BD0020024096
:1020B000034A1168034B1B780B441360704700BF41
:1020C0004409002030000020014B1868704700BF11
:1020D0004409002038B50446FFF7F6FF0546B4F181
:1020E000FF3F02D0044B1B781C44FFF7EDFF401B61
:1020F000A042FAD338BD00BF30000020002808DB22
:102100000901C9B200F1604000F5614080F8001398
:10211000704700F00F000901C9B2014B1954704714
:1021200014ED00E000B500F00700C0F1070CBCF1B1
:10213000040F28BF4FF0040C031D062B0FD9C31E3C
:102140004FF0FF3E0EFA0CF021EA000199400EFA22
:1021500003FE22EA0E0241EA02005DF804FB0023BE
:10216000EEE70000074AD36823F4E0631B041B0C6E
:10217000000200F4E060034343F0BF6343F4003324
:10218000D360704700ED00E010B50446054BD868F9
:10219000C0F30220FFF7C6FF01462046FFF7AEFF5F
:1021A00010BD00BF00ED00E0002807DB00F01F02BB
:1021B000400901239340024A42F82030704700BF93
:1021C00000E100E00138B0F1807F0BD24FF0E02356
:1021D0005861054AF02182F82310002098610722F7
:1021E0001A6170470120704700ED00E070B582B0C1
:1021F000002365E085685E000324B44025EA0405F9
:10220000CC68B4402C438460456825EA0C054C68D2
:10221000C4F300149C402C43446062E0DD080835A0
:1022200050F8254003F0070C4FEA8C0C4FF00F0ECE
:102230000EFA0CFE24EA0E0E0C6904FA0CF444EAC1
:102240000E0440F8254063E0042400E0002404FA72
:102250000EF42C430CF1020C544D45F82C40544C18
:102260002568D44325EA0206D1F804C01CF4803F57
:1022700001D042EA05064E4D2E606D6804EA05065F
:10228000D1F804C01CF4003F01D042EA0506484DD5
:102290006E60AD6804EA0506D1F804C01CF4801F26
:1022A00001D042EA0506424DAE60ED682C404E6812
:1022B00016F4001F01D042EA05043D4AD460013300
:1022C0000A6832FA03F46ED04FF0010C0CFA03FCEA
:1022D0001CEA0202F3D04C6804F00304013C012C18
:1022E00088D94C6804F00304032C0CD0C4685D004A
:1022F0004FF0030C0CFA05FC24EA0C0C8C68AC4083
:1023000044EA0C04C4604C6804F00304022C85D039
:1023100004684FEA430E4FF0030C0CFA0EFC24EA5B
:102320000C0C4C6804F0030404FA0EF444EA0C04A8
:1023300004604C6814F4403FC1D01E4CA56945F0C0
:102340000105A561A46904F001040194019C4FEA10
:10235000930C0CF10205154C54F8255003F0030EB4
:102360004FEA8E0E0F2404FA0EF425EA0405B0F1AC
:10237000904F3FF46BAF104CA0420ED004F5806438
:10238000A0420CD004F58064A0420AD004F5806419
:10239000A0423FF459AF052459E7012457E702242E
:1023A00055E7032453E702B070BD00BF00000140B1
:1023B0000004014000100240000400480369194273
:1023C00001D001207047002070470AB18161704739
:1023D00081627047436901EA030221EA030141EA8D
:1023E000024181617047000008B5054B5B690342FB
:1023F00000D108BD024B5861FFF7B8FAF9E700BFFA
:102400000004014003689A6912F0020F01D0002213
:102410009A6203689A6912F0010F03D19A6942F037
:1024200001029A61704730B4029D046860684FEA07
:10243000555C0CF4806C4CF07F7C4CF4583C4CF4B4
:102440007F7C4CF0030C20EA0C00C1F3090141EA47
:102450000241194329430843606030BC7047F8B516
:102460000E460368996911F0100F46D005461746CD
:102470005A6812F0007F03D15A6842F480425A60D1
:102480002B689C6914F0200F17D1B6F1FF3FF7D0ED
:10249000FFF71AFEC01BB04201D8002EF0D16B6CC2
:1024A00043F020036B64202385F84130002385F836
:1024B000423085F84030012020E01022DA612B689C
:1024C0002024DC612846FFF79DFF2A68536823F02B
:1024D000FF7323F48B3323F4FF7323F00103536062
:1024E0006B6C43F004036B6485F84140002385F86E
:1024F000423085F84030012000E00020F8BD70B582
:1025000004460D46164623689B6913F0020F1DD141
:10251000324629462046FFF7A2FFC8B9B5F1FF3F72
:10252000F1D0FFF7D1FD801BA84201D8002DEAD1E0
:10253000636C43F020036364202384F8413000235C
:1025400084F8423084F84030012000E0002070BD63
:102550000120FCE72DE9F0410646884617461D4656
:102560003468A46938EA04040CBF01240024BC4286
:1025700018D1B5F1FF3FF3D0FFF7A6FD069BC01AB7
:10258000A84201D8002DEBD1736C43F02003736493
:10259000202386F84130002386F8423086F8403008
:1025A000012000E00020BDE8F08100002DE9F041AD
:1025B00082B0044690461D46089E099F194B009321
:1025C0004FF08073EAB2FFF72EFF3A4631462046BD
:1025D000FFF795FFF8B9012D0ED123685FFA88F255
:1025E0009A6200973346002280212046FFF7B2FF0F
:1025F000A8B902B0BDE8F08123684FEA18229A62B8
:102600003A4631462046FFF77AFF30B923685FFA31
:1026100088F29A62E5E70120EBE70120E9E7012073
:10262000E7E700BF002000802DE9F04182B00446BA
:1026300090461D46089E099F184B00930023EAB25E
:10264000FFF7F1FE3A4631462046FFF758FFF8B94A
:10265000012D0ED123685FFA88F29A620097334603
:10266000002240212046FFF775FFA8B902B0BDE85F
:10267000F08123684FEA18229A623A463146204692
:10268000FFF73DFF30B923685FFA88F29A62E5E709
:102690000120EBE70120E9E70120E7E700200080C7
:1026A00070B505460C4616462B689B6913F0200F43
:1026B0001AD1324621462846FFF7D1FEB0B9FFF7BE
:1026C00003FD801BA04201D8002CEDD16B6C43F0C0
:1026D00020036B64202385F84130002385F84230C5
:1026E00085F84030012070BD0020FCE70120FAE7AA
:1026F000002859D010B5044690F84130002B43D043
:10270000242384F841302268136823F00103136006
:102710006368226823F0706313612268936823F46E
:1027200000439360E368012B33D0A368226843F42D
:1027300004439360E368022B31D02268536843F06E
:10274000007343F4004353602268D36823F40043CA
:10275000D360236962691343A169226843EA0123B4
:10276000D360E369216A22680B431360226813680F
:1027700043F00103136000206064202384F841309B
:10278000206384F8420010BD80F84030FFF746FB1C
:10279000B6E7A368226843F400439360CAE723685E
:1027A0004FF400625A60C8E7012070472DE9F04FEE
:1027B00083B00E46BDF834A00E9D90F84110C9B20A
:1027C000202940F0BB800446904699460C9BCBB133
:1027D000BAF1000F16D090F84030012B00F0B28013
:1027E0004FF0010B80F840B0FFF76EFC07460090F9
:1027F00019235A464FF400412046FFF7ABFE30B193
:1028000001209CE04FF400736364012097E02123D2
:1028100084F84130402384F84230002363640C9AEA
:102820006262A4F82AA06363019700954B46424672
:1028300031462046FFF7BAFE70B9638D9BB2FF2B7D
:102840000FD9FF222285002300934FF08073314679
:102850002046FFF7E8FD21E0002384F84030584689
:102860006DE0628D92B22285002300934FF00073D9
:10287000D2B231462046FFF7D6FD0FE0628D92B20C
:102880002285002300934FF00073D2B231462046D8
:10289000FFF7C9FD638D9BB2002B33D03A46294622
:1028A0002046FFF72CFE00284ED1626A236812787A
:1028B0009A62636A01336362638D9BB2013B9BB290
:1028C0006385238D013B9BB22385628D92B2002AE2
:1028D000E0D0002BDED100972B460022802120463D
:1028E000FFF738FE90BB638D9BB2FF2BC6D9FF224A
:1028F0002285002300934FF0807331462046FFF776
:1029000092FDC7E73A4629462046FFF7C9FEF8B9C7
:1029100023682022DA6121684B6823F0FF7323F4D7
:102920008B3323F4FF7323F001034B6084F84120C1
:10293000002384F8423084F8403000E0022003B0E5
:10294000BDE8F08F0220FAE70120F8E70120F6E762
:102950000120F4E72DE9F04F83B00E46BDF834A016
:102960000E9D90F84110C9B2202940F0BC80044669
:10297000904699460C9BCBB1BAF1000F16D090F857
:102980004030012B00F0B3804FF0010B80F840B0D5
:10299000FFF79AFB0746009019235A464FF400416F
:1029A0002046FFF7D7FD30B101209DE04FF40073C2
:1029B0006364012098E0222384F84130402384F8A6
:1029C0004230002363640C9A6262A4F82AA0636315
:1029D000019700954B46424631462046FFF724FEBC
:1029E00070B9638D9BB2FF2B0FD9FF222285444B18
:1029F00000934FF0807331462046FFF714FD21E02D
:102A0000002384F8403058466EE0628D92B22285F1
:102A10003B4B00934FF00073D2B231462046FFF794
:102A200002FD0FE0628D92B22285002300934FF0E9
:102A30000073D2B231462046FFF7F5FC638D9BB29E
:102A4000002B34D000972B46002204212046FFF7AC
:102A500081FD00284DD123685A6A636A1A70636A3F
:102A600001336362228D013A92B22285638D9BB25B
:102A7000013B9BB26385638D9BB2002BDED0002AA5
:102A8000DCD100972B4680212046FFF763FD90BBE9
:102A9000638D9BB2FF2BC5D9FF22228500230093B3
:102AA0004FF0807331462046FFF7BDFCC6E73A463B
:102AB00029462046FFF7F4FDF8B923682022DA61A1
:102AC00021684B6823F0FF7323F48B3323F4FF73E7
:102AD00023F001034B6084F84120002384F8423046
:102AE00084F8403000E0022003B0BDE8F08F0220FF
:102AF000FAE70120F8E70120F6E70120F4E700BF3C
:102B000000240080034690F84120D2B2202A23D12D
:102B100090F84020012A21D0012280F84020242270
:102B200080F841200068026822F001020260186803
:102B3000026822F480520260186802681143016042
:102B400019680A6842F001020A60202283F84120D5
:102B5000002083F840007047022070470220704731
:102B6000034690F84120D2B2202A21D190F840208B
:102B7000012A1FD0012280F84020242280F8412021
:102B80000068026822F0010202601868026822F4FC
:102B9000706242EA0122026019680A6842F001028A
:102BA0000A60202283F84120002083F8400070470B
:102BB000022070470220704738B512F4804F45D08C
:102BC0000468B4F8503091F800C04FEACC0E1EFAF9
:102BD00083F3023304EB4304B4F80044C4F3090460
:102BE0008B69A34228D31B1B8B618B697BB905685A
:102BF00035F82C309BB223F4804323F0700383F428
:102C0000005343F4004343F0800325F82C3012F0C6
:102C1000400F0ED002680D7832F825309BB223F4B5
:102C2000E04323F0700343F4004343F0C00322F871
:102C3000253024B9204638BD00238B61D5E72346D3
:102C40000A894969006803F006F9F3E70468B4F8F3
:102C5000503091F800C04FEACC0E1EFA83F30633D1
:102C600004EB4304B4F80044C4F309048B69A342A1
:102C70002FD31B1B8B618B697BB9056835F82C3012
:102C80009BB223F4804323F0700383F4005343F496
:102C9000004343F0800325F82C3012F0400F0FD191
:102CA000026891F800C032F82C309BB223F4E04364
:102CB00023F0700343F4004343F0C00322F82C30A8
:102CC000002CB7D023464A894969006803F0C3F84D
:102CD000B0E700238B61CEE7002864D030B587B021
:102CE000044690F8A9323BB1032384F8A932206846
:102CF00002F094F900231FE080F8A83204F034F8C1
:102D0000F2E75A1C02EB820104EBC101012048707A
:102D100002EB820104F8313003EB830104EBC101C3
:102D2000CB8602EB820C04EBCC0C00208CF8030069
:102D30008863C8630864D3B260688342E1D3002328
:102D400016E003EB830204EBC202002182F8691152
:102D500082F8683182F86B11C2F87811C2F87C11E0
:102D600003EB830204EBC202C2F880110133DBB231
:102D70009842E6D8A4465CF8105BEE46BCE80F002B
:102D8000AEE80F00DCF80030CEF80030231D0ECB8B
:102D9000284602F04DF9002084F82400012384F82D
:102DA000A93207B030BD0120704738B590F8A8327D
:102DB000012B11D00446012580F8A852006802F0CA
:102DC00024F92946204604F000F9206802F076FC38
:102DD000002084F8A80238BD0220FCE770B5054643
:102DE0000C46164612F0400F00F00D810268B2F852
:102DF00050300978C80010FA83F3023302EB430223
:102E0000B2F80024C2F30902A369934252D99B1A73
:102E1000A361A369002B6AD16378002B4DD12A6886
:102E2000B2F8503012FA83F303EB0113B3F8042421
:102E300092B222F4F84292B2A3F80424B3F8042424
:102E40006FEA42426FEA524292B2A3F804242A681F
:102E50006378002B3ED1B2F8503012FA83F3227817
:102E600003EB0213B3F80C2492B222F4F84292B2AC
:102E7000A3F80C24B3F80C246FEA42426FEA5242E2
:102E800092B2A3F80C242178284603F0BDFF16F473
:102E9000804F41D02A68217832F821309BB223F448
:102EA000E04323F0700343F4404343F0800322F8EF
:102EB000213031E00023A361ABE7012BC7D12A68A1
:102EC000B2F8503012FA83F303EB01130022A3F897
:102ED0000424BCE7012BD6D1B2F8503012FA83F3A8
:102EE000227803EB02130022A3F80C24CBE716F49C
:102EF000804F0DD0286830F821309BB223F4E04396
:102F000023F0700343F4404343F0800320F8213062
:102F100094F82430012B12D02A68217832F821301D
:102F20009BB223F4E04323F0400383F0300343F4E7
:102F3000004343F0800322F82130002070BD636914
:102F400013446361E3691344E361216A236999428D
:102F50001FD3C91A21626278002A3FD12968B1F8CB
:102F6000502011FA82F2217802EB0112EBB9B2F88B
:102F7000041489B221F4F84189B2A2F80414B2F819
:102F800004146FEA41416FEA514189B2A2F8041476
:102F900026E021B9002384F824301346DBE7002320
:102FA00084F8243023620B46D5E73E2B09D8590814
:102FB00013F0010F00D00131890289B2A2F8041484
:102FC0000EE0590913F01F0F00D101396FEAC161FA
:102FD0006FEA514189B2A2F8041401E0012A06D037
:102FE0009BB222896169286802F06EFB94E7296828
:102FF000B1F8502011FA82F2217802EB011299B255
:10300000A2F80414ECE70268B2F850300978C8005E
:1030100010FA83F3063302EB4302B2F80024C2F342
:103020000902A369934253D39B1AA361A369002B9E
:103030006BD16378002B4ED12A68B2F8503012FA67
:1030400083F303EB0113B3F8042492B222F4F842A1
:1030500092B2A3F80424B3F804246FEA42426FEA60
:10306000524292B2A3F804242A686378002B3FD11D
:10307000B2F8503012FA83F3227803EB0213B3F85C
:103080000C2492B222F4F84292B2A3F80C24B3F8C2
:103090000C246FEA42426FEA524292B2A3F80C2427
:1030A0002178284603F0B0FE16F4804F7FF434AF49
:1030B0002A68217832F821309BB223F4E04323F0D0
:1030C000700343F4404343F0800322F8213023E7A8
:1030D0000023A361AAE7012BC6D12A68B2F85030B9
:1030E00012FA83F303EB01130022A3F80424BBE7D5
:1030F000012BD5D1B2F8503012FA83F3227803EBCA
:1031000002130022A3F80C24CAE716F4804F0DD155
:10311000286830F821309BB223F4E04323F0700399
:1031200043F4404343F0800320F8213094F82430E6
:10313000012B7FF4F1AE636913446361E3691344C7
:10314000E361216A236999421FD3C91A2162296860
:103150006278002A3ED1B1F8502011FA82F221782B
:1031600002EB0112EBB9B2F80C1489B221F4F84168
:1031700089B2A2F80C14B2F80C146FEA41416FEA5C
:10318000514189B2A2F80C1426E021B9002384F839
:1031900024301346DBE70023236284F824300B46F7
:1031A000D5E73E2B09D8590813F0010F00D00131A3
:1031B000890289B2A2F80C140EE0590913F01F0F0E
:1031C00000D101396FEAC1616FEA514189B2A2F8B9
:1031D0000C1401E0012A06D09BB26289616928685B
:1031E00002F072FA98E6B1F8502011FA82F22178D2
:1031F00002EB011299B2A2F80C14EDE72DE9F041AF
:103200000546C7E003889BB223F4E14323F0700333
:103210006FEA43436FEA53439BB203802A68B2F8D4
:10322000503095F82810C90011FA83F3023302EBED
:103230004302B2F80034C3F309036B64EA6B1A4427
:10324000EA630021284603F0DFFD95F82430002BC7
:1032500000F0A0802B6C002B40F09C8095F824306F
:103260002A6843F08003A2F84C30002385F824300C
:1032700090E0B0F8503095F86821D20012FA83F34C
:10328000063300EB4303B3F80034C3F30903C5F876
:103290008431B5F86E2105F52C7102F0DCFD2A6849
:1032A000138823F070031B051B0D43F0800313806C
:1032B000284603F095FD6DE03E2A09D8510812F02A
:1032C000010F00D001318A0292B2A3F80C24C6E0AB
:1032D000510912F01F0F00D101396FEAC1626FEA84
:1032E000524292B2A3F80C24B9E030F824309EB2D6
:1032F00013F4004F40F0C28016F0800F4AD0621CD9
:1033000002EB820105EBC101286830F824309BB242
:1033100023F4E14323F070036FEA43436FEA53431E
:103320009BB220F82430CB78022B00F0B28104EB62
:10333000840305EBC30300221A6416F0400F00F06B
:1033400071814B78002B40F05A812A68B2F85030D6
:1033500012FA83F3621C02EB820215F8322003EBAF
:103360000213B3F8042492B222F4F84292B2A3F802
:103370000424B3F804246FEA42426FEA524292B244
:10338000A3F80424013404EB840415F8341028460F
:1033900003F03AFD2868B0F8443013F4004F00F011
:1033A000C281B0F84440A3B214F00F049DD113F0D1
:1033B000100F3FF427AF03889AB213F4006F7FF425
:1033C00058AF12F4004FE5D0038823F070031B05BB
:1033D0001B0D43F0800303802868B0F8503095F847
:1033E0006821D20012FA83F3063300EB4303B3F8EB
:1033F0000034C3F30903C5F884318BB1D5F87C11CF
:1034000071B1B5F86E2102F026FDD5F87C31D5F802
:1034100084211344C5F87C310021284603F0E8FCE0
:103420002B681A8812F4006FB4D1B3F8502013FA45
:1034300082F3D5F87821002A7FF43EAFB3F80C244C
:1034400092B222F4F84292B2A3F80C24B3F80C24FE
:103450006FEA42426FEA524292B2A3F80C242A6801
:1034600013889BB223F4804323F0700383F440530A
:1034700043F4004343F0800313808BE730F824309B
:1034800023F070031B051B0D43F0800320F824304C
:1034900004EB8401C90001F5B47105EB010804EBEC
:1034A000840305EBC30393F87431002B42D12868E1
:1034B000B0F8503004EB840205EBC20292F86821A8
:1034C000D20012FA83F3063300EB4303B3F800741F
:1034D000C7F3090717BB04EB840305EBC303D3F859
:1034E00084213A44C3F88421D3F87C213A44C3F8B8
:1034F0007C21D3F880313BB104EB840305EBC3039B
:10350000D3F878319F4275D204EB840305EBC303F3
:1035100093F86811284603F06BFCEDE604EB840198
:1035200005EBC1013B46B1F86E21D1F87C1102F0E8
:1035300092FCD0E704EB840305EBC30393F86B31F3
:10354000022B35D0296804EB840205EBC20292F805
:10355000680131F820309BB223F4E04323F070037C
:1035600043F4004343F0C00321F82030286892F868
:10357000683130F8232012F4804F20D0B0F850206A
:10358000DB0013FA82F3023300EB4303B3F8007459
:10359000C7F30907002F9ED004EB840105EBC1019E
:1035A0003B46B1F87021D1F87C1102F054FC92E74F
:1035B000324641462846FFF7FFFA07468BE7B0F848
:1035C0005020DB0013FA82F3063300EB4303B3F819
:1035D0000074C7F30907002F3FF47DAF04EB8401AB
:1035E00005EBC1013B46B1F87221D1F87C1102F024
:1035F00032FC70E74146286802F079F87CE6012B3E
:103600007FF4C0AE2A68B2F8503012FA83F3621C1D
:1036100002EB820215F8322003EB02130022A3F81A
:103620000424AFE62A68631C03EB830305EBC303A2
:103630005B78E3B9B2F8503012FA83F3621C02EB04
:10364000820215F8322003EB0213B3F80C2492B275
:1036500022F4F84292B2A3F80C24B3F80C246FEAD7
:1036600042426FEA524292B2A3F80C248AE6012B3E
:103670007FF488AEB2F8503012FA83F3621C02EB8A
:10368000820215F8322003EB02130022A3F80C2467
:1036900078E616F4807F41D12868B0F85030621C7B
:1036A00002EB820215F83260F20012FA83F3023361
:1036B00000EB4303B3F80034C3F3090304EB8402C3
:1036C00005EBC202126C9A4210D904EB840705EB99
:1036D000C707D21A3A6404EB840205EBC202126CEB
:1036E0005AB93146284603F08FFB53E604EB8402B7
:1036F00005EBC20200271764EDE704EB840205EB3B
:10370000C202D66B1E44D663526C04EB840405EBF4
:10371000C4041344636401F0EAFF3BE632462846E2
:10372000FFF75CFB36E60020BDE8F08190F8A83298
:10373000012B0DD010B50446012380F8A83280F883
:103740002410006801F0B4FF002084F8A80210BD26
:103750000220704710B50446006801F0B1FF10F474
:10376000004F45D1206801F0ABFF10F4806F43D1CA
:10377000206801F0A5FF10F4804F08D02268B2F84D
:1037800044309BB223F480439BB2A2F844302068BB
:1037900001F096FF10F4005F08D02268B2F84430C0
:1037A0009BB223F400539BB2A2F84430206801F08E
:1037B00087FF10F4805F30D1206801F081FF10F4A2
:1037C000006F49D1206801F07BFF10F4007F60D1C9
:1037D000206801F075FF10F4807F08D02268B2F8ED
:1037E00044309BB223F480739BB2A2F8443010BDE6
:1037F0002046FFF703FDB5E72268B2F844309BB2DC
:1038000023F480639BB2A2F84430204603F00DFB02
:1038100000212046FFF78AFFAAE72268B2F840306D
:103820009BB223F004039BB2A2F840302268B2F8A6
:1038300040309BB223F008039BB2A2F840302046F0
:1038400003F016FB2268B2F844309BB223F4805395
:103850009BB2A2F84430AFE72268B2F840309BB286
:1038600043F00803A2F840302268B2F844309BB21B
:1038700023F400639BB2A2F844302268B2F84030CF
:103880009BB243F00403A2F84030204603F0E0FA74
:1038900098E72268B2F844309BB223F400739BB2DD
:1038A000A2F84430204603F0BAFA91E710B5044676
:1038B0008C4611F0800F2AD101F0070000EB800147
:1038C000C90001F5B47E04EB0E0100EB800004EBAF
:1038D000C0004FF0000E80F869E10CF0070C81F891
:1038E00000C00A61CB704A780AB1A1F80EC0022B61
:1038F00019D094F8A832012B18D0012384F8A832EB
:10390000206801F0A6FB002084F8A80210BD01F099
:103910000700013000EB800104EBC1014FF0010E04
:1039200081F801E0D9E700230B71E2E70220EDE71F
:1039300010B504460B4611F0800F1FD101F00702AD
:1039400002EB8201C90001F5B471014402EB82026D
:1039500000EBC202002082F8690103F007030B703C
:1039600094F8A832012B13D0012384F8A8322068E0
:1039700001F03DFD002084F8A80210BD01F007020F
:10398000013202EB820100EBC10101204870E4E743
:103990000220F2E710B501F0070404EB8401C9002E
:1039A00001F5B471014404EB840C00EBCC0CCCF8B1
:1039B0007C21CCF880310023CCF884318CF869313B
:1039C0008CF8684124B9006801F091FE002010BD18
:1039D000006801F08CFEF9E701F0070101EB8101BD
:1039E00000EBC100D0F88401704710B501F0070466
:1039F00004F1010C0CEB8C0100EBC10104EB840E13
:103A000000EBCE0ECEF83C20CEF8403001228EF8EE
:103A10004C20CEF848300023CEF844304A700CEBEE
:103A20008C0C00F83C4024B9006801F060FE0020D6
:103A300010BD006801F05BFEF9E70B4601F00702DC
:103A400041688A422AD810B5044613F0800F1DD170
:103A500003EB8301C90001F5B471014403EB830357
:103A600000EBC303002083F8690101238B700A7007
:103A700094F8A832012B13D0012384F8A8322068CF
:103A800001F0A0FD002084F8A80210BD531C03EB38
:103A9000830100EBC10101204870E6E70120704777
:103AA0000220F2E70B4601F00F014268914230D844
:103AB00010B5044613F0800F21D103F0070202EB8A
:103AC0008201C90001F5B471014402EB820200EBEE
:103AD000C202002082F8690100228A7003F0070305
:103AE0000B7094F8A832012B15D0012384F8A8326A
:103AF000206801F08CFD002084F8A80210BD03F0BE
:103B00000702013202EB820100EBC1010120487083
:103B1000E2E7012070470220F0E711F0800F0BD0A0
:103B200001F00701013101EB810100EBC10052B945
:103B30000273C3800020704701EB8101C90001F5C9
:103B4000B4710844F3E70122027303811B0C438123
:103B5000F0E70000002800F0FF8270B582B0044654
:103B6000036813F0010F3BD0B44B5B6803F00C0308
:103B7000042B1ED0B14B5B6803F00C03082B13D051
:103B80006368B3F5803F68D0002B40F0928003F16A
:103B9000804303F504331A6822F480321A601A68ED
:103BA00022F480221A605DE0A44B5B6813F4803F2E
:103BB000E6D04FF4003393FAA3F3A04B19684FF407
:103BC000003393FAA3F3B3FA83F303F01F03012244
:103BD00002FA03F30B4203D06368002B00F0BE82AD
:103BE000236813F0020F00F0C480944B5B6813F05D
:103BF0000C0F00F09C80914B5B6803F00C03082BCA
:103C000000F08F802369002B00F0F080012292FAEF
:103C1000A2F3B3FA83F303F1845303F584139B00F7
:103C20001A60FEF751FA0546022393FAA3F3834B79
:103C30001968022393FAA3F3B3FA83F303F01F0383
:103C4000012202FA03F30B4240F0C280FEF73CFA75
:103C5000401B0228E8D9032089E2784A136843F41C
:103C600080331360754AD36A23F00F03A1680B43B6
:103C7000D3626368002B36D0FEF726FA05464FF470
:103C8000003393FAA3F36D4B19684FF4003393FAA2
:103C9000A3F3B3FA83F303F01F03012202FA03F341
:103CA0000B429DD1FEF710FA401B6428E7D9032090
:103CB0005DE2B3F5A02F09D0604B1A6822F4803280
:103CC0001A601A6822F480221A60CBE703F180435D
:103CD000A3F53C331A6842F480221A601A6842F451
:103CE00080321A60BEE7FEF7EFF905464FF4003365
:103CF00093FAA3F3514B19684FF4003393FAA3F3EB
:103D0000B3FA83F303F01F03012202FA03F30B4219
:103D10003FF466AFFEF7D8F9401B6428E6D90320CC
:103D200025E2464B5B6813F4803F7FF46BAF0223C0
:103D300093FAA3F3414B1968022393FAA3F3B3FA5E
:103D400083F303F01F03012202FA03F30B4203D0B3
:103D50002369934240F004823848036823F0F80353
:103D60006169F82292FAA2F2B2FA82F291400B4310
:103D70000360236813F0080F00F08C80A369002B08
:103D800060D0012191FAA1F2B2FA82F22C4B1344D5
:103D90009B001960FEF798F90546022393FAA3F2F7
:103DA00093FAA3F293FAA3F2244A516A93FAA3F383
:103DB000B3FA83F303F01F03012202FA03F30B4269
:103DC00068D1FEF781F9401B0228E6D90320CEE135
:103DD0001A48036823F0F8036169F82292FAA2F204
:103DE000B2FA82F291400B430360C2E7012393FAD7
:103DF000A3F3B3FA83F303F1845303F584139B0015
:103E000000221A60FEF760F90546022393FAA3F335
:103E10000A4B1968022393FAA3F3B3FA83F303F06E
:103E20001F03012202FA03F30B42A2D0FEF74CF962
:103E3000401B0228E9D9032099E100BF001002408D
:103E400020819010012292FAA2F2B2FA82F2B74BCC
:103E500013449B0000221A60FEF736F90546022340
:103E600093FAA3F293FAA3F293FAA3F2B04A516A37
:103E700093FAA3F3B3FA83F303F01F03012202FAC8
:103E800003F30B4206D0FEF71FF9401B0228E6D9C8
:103E900003206CE1236813F0040F00F0A980A44B09
:103EA000DB6913F0805F20D1A14BDA6942F08052C8
:103EB000DA61DB6903F080530193019B01259D4B7F
:103EC0001B6813F4807F12D0E368012B23D073BBEF
:103ED00003F1804303F504331A6A22F001021A62E7
:103EE0001A6A22F004021A621AE00025E7E7914AF2
:103EF000136843F480731360FEF7E6F806468D4BB3
:103F00001B6813F4807FDFD1FEF7DEF8801B642886
:103F1000F5D903202BE1864A136A43F001031362AB
:103F2000E368002B3CD0FEF7CFF806462EE0052BC9
:103F300009D07F4B1A6A22F001021A621A6A22F033
:103F400004021A62ECE77A4B1A6A42F004021A621F
:103F50001A6A42F001021A62E2E7022393FAA3F31B
:103F6000734B596A022393FAA3F3B3FA83F303F072
:103F70001F03012202FA03F3194238D1FEF7A4F815
:103F8000801B41F28833984200F2EC80022393FABE
:103F9000A3F293FAA3F3002BDFD0654B196AE1E794
:103FA000FEF792F8064618E0022393FAA3F3604B5B
:103FB000596A022393FAA3F3B3FA83F303F01F03BE
:103FC000012202FA03F3194211D0FEF77DF8801B9B
:103FD00041F28833984200F2C780022393FAA3F299
:103FE00093FAA3F3002BDFD0514B196AE1E7B5BB7D
:103FF000E369002B00F0BA804D4A526802F00C02CF
:10400000082A00F09980022B2FD04FF0807393FA8A
:10401000A3F3B3FA83F303F1845303F584139B00F2
:1040200000221A60FEF750F804464FF0007393FA2E
:10403000A3F33F4B19684FF0007393FAA3F3B3FA5D
:1040400083F303F01F03012202FA03F319426BD03A
:10405000FEF73AF8001B0228E7D9032087E0344A2C
:10406000D36923F08053D361C2E74FF0807393FA92
:10407000A3F3B3FA83F303F1845303F584139B0092
:1040800000221A60FEF720F805464FF0007393FAFD
:10409000A3F3274B19684FF0007393FAA3F3B3FA15
:1040A00083F303F01F03012202FA03F3194206D03F
:1040B000FEF70AF8401B0228E7D9032057E01C4905
:1040C0004B6823F47413626A206A024313434B6003
:1040D0004FF0807393FAA3F3B3FA83F303F184539D
:1040E00003F584139B0001221A60FDF7EDFF0446DF
:1040F0004FF0007393FAA3F30D4B19684FF0007360
:1041000093FAA3F3B3FA83F303F01F03012202FA35
:1041100003F3194206D1FDF7D7FF001B0228E7D9A8
:10412000032024E0002022E0002020E020819010E5
:104130000010024000700040012B1AD0104B5B6849
:1041400003F48031226A914215D103F47013626A3C
:10415000934212D100200AE001207047012006E0BE
:10416000012004E0032002E0032000E0002002B070
:1041700070BD0120FBE70120F9E70120F7E700BF50
:1041800000100240164B5B6803F00C02082A01D0B5
:104190001448704703F470114FF4701292FAA2F2AF
:1041A000B2FA82F221FA02F20F49885C0C4AD26A12
:1041B00002F00F020F2191FAA1F1B1FA81F1CA4088
:1041C0000A498A5C13F4803F05D0064BB3FBF2F337
:1041D00003FB00F07047064B03FB00F0704700BF85
:1041E0000010024000127A00F4D90008E4D9000857
:1041F00000093D00002800F0BE8070B50D46044661
:10420000614B1B6803F007038B420BD25E4A1368B5
:1042100023F007030B431360136803F007038B427B
:1042200040F0AB80236813F0020F06D0574A536862
:1042300023F0F003A1680B435360236813F0010FD0
:104240005AD06368012B2DD0022B40D0022292FA63
:10425000A2F24E4A1068022292FAA2F2B2FA82F256
:1042600002F01F02012101FA02F2104200F08780E1
:1042700046494A6822F0030213434B60FDF724FFCE
:104280000646424B5B6803F00C036268B3EB820F97
:1042900032D0FDF719FF801B41F288339842F0D9E4
:1042A000032067E04FF4003292FAA2F2374A106816
:1042B0004FF4003292FAA2F2B2FA82F202F01F0236
:1042C000012101FA02F20242D2D1012052E04FF064
:1042D000007292FAA2F22D4A10684FF0007292FA20
:1042E000A2F2B2FA82F202F01F02012101FA02F2F6
:1042F0001042BDD101203DE0234B1B6803F00703B2
:10430000AB420AD9204A136823F007032B431360FA
:10431000136803F00703AB4233D1236813F0040F93
:1043200006D01A4A536823F4E063E1680B435360F4
:10433000236813F0080F07D0144A536823F460531E
:10434000216943EAC1035360FFF71CFF0F4B5B6811
:1043500003F0F003F02292FAA2F2B2FA82F2D34012
:104360000B4AD35CD8400B4B18600B4B1868FDF719
:1043700067FE002070BD012070470120FAE7012090
:10438000F8E70120F6E700BF0020024000100240DD
:10439000D4D900082C00002034000020F0B583B0F0
:1043A0000446036813F4803F48D0914BDB6913F057
:1043B000805F40F0D4808E4BDA6942F08052DA613F
:1043C000DB6903F080530193019B0125894B1B6836
:1043D00013F4807F00F0C580854B1B6A13F4407393
:1043E00022D0626802F440729A421DD08048016A6D
:1043F00021F440764FF4803393FAA3F2B2FA82F2BA
:104400007D4F3A4492004FF0010CC2F800C093FA7D
:10441000A3F3B3FA83F33B449B0000221A600662C5
:1044200011F0010F40F0B280714A136A23F4407317
:1044300061680B431362002D40F0CF80236813F0B6
:10444000010F06D06A4A136B23F00303A1680B43E4
:104450001363236813F0020F06D0654A136B23F42D
:104460004033E1680B431363236813F0040F06D055
:104470005F4A136B23F4402321690B4313632368C2
:1044800013F0200F06D05A4A136B23F01003E16992
:104490000B431363236813F4003F06D0544A536858
:1044A00023F48003A16B0B435360236813F0400F88
:1044B00006D04F4A136B23F02003216A0B4313638A
:1044C000236813F0080F06D0494A136B23F44013F6
:1044D00061690B431363236813F0100F06D0444A3D
:1044E000136B23F44003A1690B431363236813F494
:1044F000007F06D03E4A536823F40003E16A0B4371
:104500005360236813F0800F06D0394AD36A23F42E
:10451000F873616A0B43D362236813F4807F06D07B
:10452000334AD36A23F47853A16A0B43D3622368D6
:1045300013F4805F06D02E4A136B23F48073216B33
:104540000B431363236813F4005F4DD0284A136BA9
:1045500023F40073616B0B431363002045E00025D7
:1045600034E7244A136843F480731360FDF7ACFD0D
:104570000646204B1B6813F4807F7FF42DAFFDF7B8
:10458000A3FD801B6428F4D903202EE0FDF79CFDD9
:10459000064618E0022393FAA3F3154B596A022347
:1045A00093FAA3F3B3FA83F303F01F03012202FA91
:1045B00003F30B427FF438AFFDF786FD801B41F219
:1045C000883398420ED8022393FAA3F293FAA3F306
:1045D000002BDFD0064B196AE1E7D36923F0805343
:1045E000D3612BE7032000E0002003B0F0BD00BF43
:1045F0000010024000700040008190102DE9F0474B
:1046000082B00546884617461E46FDF75DFD0A9BAB
:104610001B1A03EB0609FDF757FD8246284B1B6862
:10462000C3F3CB3309FB03F301932B689C6838EA8F
:1046300004040CBF01230023BB423DD0B6F1FF3F71
:10464000F3D0FDF741FDA0EB0A00484507D2019ADF
:1046500002B14A46019B013B01939146E5E72A6876
:10466000536823F0E00353606B68B3F5827F0BD08F
:10467000AB6AB3F5005F14D0012385F85D300023E9
:1046800085F85C30032018E0AB68B3F5004F02D02A
:10469000B3F5806FECD12A68136823F040031360F0
:1046A000E6E72A68136823F4005313602A68136846
:1046B00043F400531360DFE7002002B0BDE8F08749
:1046C0002C0000202DE9F04782B006460C46154626
:1046D0001F4600238DF80330FDF7F6FC0A9B1B1ADA
:1046E00003EB0708FDF7F0FC8146D6F800A0304B3D
:1046F0001B6803EB8303C3EBC3031B0D08FB03F32E
:10470000019302E0B7F1FF3F12D133689B6803EADF
:10471000040CAC4547D0B4F5C06FF3D1002DF1D1F6
:104720009AF80C30DBB28DF803309DF80330E9E7DE
:10473000FDF7CAFCA0EB0900404507D2019A02B17F
:104740004246019B013B01939046DEE73268536885
:1047500023F0E00353607368B3F5827F0BD0B36A34
:10476000B3F5005F14D0012386F85D30002386F88E
:104770005C30032018E0B368B3F5004F02D0B3F506
:10478000806FECD13268136823F040031360E6E7D2
:104790003268136823F4005313603268136843F4DB
:1047A00000531360DFE7002002B0BDE8F08700BFD0
:1047B0002C00002070B582B004460D4616460092CB
:1047C0000B4600224FF4C051FFF77CFFB0B90096B2
:1047D0002B46002280212046FFF710FFA8B9009643
:1047E0002B4600224FF4C0612046FFF76BFF50B10B
:1047F000236E43F020032366032004E0236E43F07E
:1048000020032366032002B070BD236E43F0200313
:1048100023660320F7E770B582B004460D461646BE
:104820004368B3F5827F0DD000962B46002280218D
:104830002046FFF7E3FE90B96368B3F5827F14D09A
:1048400002B070BD8368B3F5004F02D0B3F5806F3E
:10485000EAD12268136823F040031360E4E7236E73
:1048600043F0200323660320EAE7A368B3F5004F73
:1048700002D0B3F5806FE3D100962B4600224FF4AF
:10488000C0612046FFF71EFF0028D9D0236E43F0F9
:10489000200323660320D3E700286FD010B5044619
:1048A000436A33B94368B3F5827F05D00023C361FF
:1048B00002E00023036143610023A36294F85D30AA
:1048C000002B52D0022384F85D302268136823F055
:1048D00040031360E368B3F5E06F4CD90022B3F5F1
:1048E000706F04D0B3F5E06F01D00023A36263685A
:1048F00003F48273A16801F404410B43216901F0C0
:1049000002010B43616901F001010B43A16901F44C
:1049100000710B43E16901F038010B43216A01F09A
:1049200080010B43A16A01F4005120680B4303602E
:10493000638B03F00403616A01F010010B43616BA8
:1049400001F008010B43E16801F470610B43216839
:104950001A434A602268D36923F40063D3610020BC
:104960002066012384F85D3010BD84F85C30204659
:10497000FDF78AFAA6E74FF48052B0E701207047AE
:104980002DE9F04383B01D4690F85C30012B00F018
:10499000F680044688469146012380F85C30FDF796
:1049A00093FB074694F85D60F6B2012E40F0D48088
:1049B000B8F1000F00F0D180B9F1000F00F0CD8008
:1049C000032384F85D3000232366C4F83880A4F8FC
:1049D0003C90A4F83E902364A4F84430A4F84630F8
:1049E0002365E364A368B3F5004F1ED023681A68FB
:1049F00012F0400F03D11A6842F040021A60E368D7
:104A0000B3F5E06F42D9636813B1B9F1010F23D157
:104A1000A26B23681288DA60A36B0233A363E38F6F
:104A20009BB2013B9BB2E38716E02268136823F038
:104A3000400313602268136843F480431360D5E792
:104A4000FDF742FBC01BA84203D3B5F1FF3F40F086
:104A50008E80002D00F08D80E38F9BB2002B66D0FE
:104A600023689A6812F0020FEAD0A26B1288DA600B
:104A7000A36B0233A363B4F83EC01FFA8CFC0CF1A5
:104A8000FF3C1FFA8CFCA4F83EC0E5E7636813B155
:104A9000B9F1010F33D1E38F9BB2012B0CD9A26B7B
:104AA00023681288DA60A36B0233A363E38F9BB29F
:104AB000023B9BB2E38722E0A26B236812781A7351
:104AC000A36B0133A363E38F9BB2013B9BB2E387EC
:104AD00015E0A36B1B781373A36B0133A363E38F00
:104AE0009BB2013B9BB2E38709E0FDF7EDFAC01BE7
:104AF000A84202D3B5F1FF3F3DD1002D3DD0E38F59
:104B00009BB2A3B12268936813F0020FEDD0E38F3C
:104B10009BB2012BDDD9A36B1B88D360A36B02333F
:104B2000A363E38F9BB2023B9BB2E387E7E73A467E
:104B300029462046FFF73EFE08B120232366A368DE
:104B400033B901932368DA6801929B680193019B52
:104B5000236E13B9002600E00226012384F85D309D
:104B6000002384F85C30304603B0BDE8F0830326B0
:104B7000F3E70326F1E70326EFE70326EDE7022636
:104B8000F1E72DE9F8431F46089D90F85C30012BB2
:104B900000F06481044688469146012380F85C3029
:104BA000FDF792FA064694F85D30DBB26268012B9D
:104BB0000AD0B2F5827F40F03881A268002A40F026
:104BC0003D81042B40F03C81B8F1000F00F03A81A8
:104BD000B9F1000F00F03881002F00F0378194F810
:104BE0005D30DBB2042B02D0052384F85D30002356
:104BF0002366C4F84090A4F84670A4F84470C4F842
:104C00003880E787A787E3642365E368B3F5E06F3F
:104C100001D8012F23D92268536823F480535360AD
:104C200023681A6812F0400F03D11A6842F040025C
:104C30001A60E368B3F5E06F58D963680BB1012FD0
:104C40000BD1A26B23681288DA60A36B0233A363D3
:104C5000E38F9BB2013B9BB2E387012731E02268DF
:104C6000536843F480535360DAE7A26B1288DA602A
:104C7000A36B0233A363E38F9BB2013B9BB2E38739
:104C8000002723689A6812F0010F11D0B4F846206B
:104C900092B26AB1DA68236C1A80236C02332364FF
:104CA000B4F846309BB2013B9BB2A4F846300127D2
:104CB000FDF70AFA831BAB4203D3B5F1FF3F40F087
:104CC000C780E38F9BB22BB9B4F846309BB2002B60
:104CD00000F0A18023689A6812F0020FD1D0E28F11
:104CE00092B2002ACDD0002FCBD0BEE763680BB1C3
:104CF000012F0FD1E38F9BB2012B0DD9A26B23683B
:104D00001288DA60A36B0233A363E38F9BB2023B8A
:104D10009BB2E387012749E0A26B236812781A73DC
:104D2000A36B0133A363E38F9BB2013B9BB2E38789
:104D3000F0E7E28F92B2012A0CD9A26B1288DA60F6
:104D4000A36B0233A363E38F9BB2023B9BB2E38767
:104D500000273DE0A26B12781A73A36B0133A363A3
:104D6000E38F9BB2013B9BB2E387002730E02268D0
:104D7000536843F48053536001270DE0226C1B7B82
:104D80001370236C01332364B4F846309BB2013BAB
:104D90009BB2A4F846300127FDF796F9801BA84284
:104DA00002D3B5F1FF3F55D1002D55D0E38F9BB213
:104DB00023B9B4F846309BB2002B2CD023689A68F4
:104DC00012F0020F04D0E28F92B20AB1002FB0D1DC
:104DD00023689A6812F0010FDED0B4F8462092B230
:104DE000002AD9D0B4F8462092B2012AC6D9DA688E
:104DF000236C1A80236C02332364B4F846309BB2D0
:104E0000023B9BB2A4F84630B4F846309BB2012B6B
:104E1000ADD90127C0E7324629462046FFF7CAFC34
:104E200020B120232366012000E00220012384F822
:104E30005D30002384F85C30BDE8F8830220F5E79C
:104E40000220F3E70120F1E70120EFE70120EDE781
:104E50000320EBE70320E9E70320E7E70220EBE785
:104E60002DE9F04383B00446884691461D464068CC
:104E7000B0F5827F43D094F85C30012B00F0C38002
:104E8000012384F85C30FDF71FF9074694F85D6054
:104E9000F6B2012E40F0A480B8F1000F00F0A1801E
:104EA000B9F1000F00F09D80042384F85D300023E9
:104EB0002366C4F84080A4F84490A4F84690A36305
:104EC000A387E387E3642365E368B3F5E06F24D940
:104ED0002268536823F480535360A368B3F5004FEE
:104EE00021D023681A6812F0400F03D11A6842F0EB
:104EF00040021A60E368B3F5E06F29D94AE0A3687D
:104F0000002BB8D1042384F85D30009513460A467F
:104F10002046FFF736FE064669E02268536843F4F0
:104F200080535360D9E72268136823F0400313606D
:104F30002268136823F480431360D2E7FDF7C4F8B6
:104F4000C01BA84202D3B5F1FF3F54D1002D54D06D
:104F5000B4F846309BB2002B36D023689A6812F022
:104F6000010FEBD0226C1B7B1370236C0133236485
:104F7000B4F846309BB2013B9BB2A4F84630E7E759
:104F8000FDF7A2F8C01BA84202D3B5F1FF3F36D10E
:104F9000002D36D0B4F846309BB2ABB123689A6886
:104FA00012F0010FECD0DA68236C1A80236C023304
:104FB0002364B4F846C01FFA8CFC0CF1FF3C1FFAC6
:104FC0008CFCA4F846C0E5E73A4629462046FFF7A0
:104FD00022FC08B120232366236E13B9002600E0CB
:104FE0000226012384F85D30002384F85C303046CB
:104FF00003B0BDE8F0830326F3E70326F1E70326B9
:10500000EFE70326EDE70226F1E703460020A3F8C9
:1050100044004FF43F42A3F840207047B0F84030BE
:1050200023F47C535B045B0CA0F8403000207047F5
:1050300084B0844601A880E80E000123ACF840301B
:105040000020ACF84000ACF84400ACF8500004B0CC
:10505000704710B5034691F800C030F82C2092B28A
:1050600022F4EC4222F0700292B2C878032861D890
:10507000DFE800F0555C0258002048F2800E42EA5A
:105080000E0223F82C2091F800C033F82C2092B2A5
:1050900022F4E04222F070024CEA020242EA0E02DE
:1050A00023F82C200A7B002A40F0C4804A78002A8A
:1050B00051D0B3F8502013FA82F20C7802EB0412AC
:1050C000B1F806C04FEA5C0C4FEA4C0CA2F800C4E1
:1050D0000C7833F8242012F0400F0CD033F8242041
:1050E00092B222F4E04222F0700242F4004242F016
:1050F000C00223F82420CA78012A1DD0097833F889
:10510000212092B222F4E04222F0400282F02002FA
:1051100042F4004242F0800223F821206AE042F487
:105120000072AAE742F4C0620020A6E742F480625F
:105130000020A2E70120A0E7097833F8212092B2ED
:1051400022F4E04222F0400242F4004242F08002A7
:1051500023F821204EE0B3F8502013FA82F20C78A5
:1051600002EB0412B1F806C04FEA5C0C4FEA4C0C9B
:10517000A2F808C4B3F8502013FA82F20C7802EBBC
:1051800004120C69BCBBB2F80CC41FFA8CFC2CF4E2
:10519000F84C1FFA8CFCA2F80CC4B2F80CC46FEAED
:1051A0004C4C6FEA5C4C1FFA8CFCA2F80CC40C78D7
:1051B00033F8242012F4804F0CD033F8242092B21C
:1051C00022F4E04222F0700242F4404242F08002B7
:1051D00023F82420097833F8212092B222F4804267
:1051E00022F0700282F4405242F4004242F0800207
:1051F00023F8212010BD3E2C0DD84FEA540C14F09A
:10520000010F01D00CF1010C4FEA8C2C1FFA8CFC21
:10521000A2F80CC4CBE74FEA541C14F01F0F01D1C5
:105220000CF1FF3C6FEACC646FEA5444A4B2A2F8DC
:105230000C44BCE7CA78022A73D091F800C033F856
:105240002C2092B222F4E24222F0700242F4004298
:1052500042F0800223F82C20B3F8502013FA82F297
:1052600091F800C002EB0C12B1F808C04FEA5C0CD8
:105270004FEA4C0CA2F800C4B3F8502013FA82F2A3
:1052800091F800C002EB0C12B1F80AC04FEA5C0CB6
:105290004FEA4C0CA2F808C44A78002A50D10C7886
:1052A00033F8242012F4804F0CD033F8242092B22B
:1052B00022F4E04222F0700242F4404242F08002C6
:1052C00023F824200C7833F8242012F0400F0CD05F
:1052D00033F8242092B222F4E04222F0700242F429
:1052E000004242F0C00223F8242091F800C033F8B5
:1052F0002C2092B222F4804222F0700282F44052BA
:1053000048F28004224323F82C20097833F8212026
:1053100092B222F4E04222F04002224323F82120FC
:1053200068E70C7833F8242092B222F4E04222F0AD
:10533000700242F4014242F0800223F824208BE7FD
:105340000C7833F8242012F4804F0CD033F824204A
:1053500092B222F4E04222F0700242F4404242F063
:10536000800223F824200C7833F8242012F0400F18
:105370000CD033F8242092B222F4E04222F07002E2
:1053800042F4004242F0C00223F82420CA78012AE5
:105390001ED00C7833F8242092B222F4E04222F09E
:1053A000400282F0200242F4004242F0800223F8E0
:1053B0002420097833F8212092B222F4804222F08E
:1053C000700242F4004242F0800223F8212011E7EB
:1053D0000C7833F8242092B222F4E04222F040020A
:1053E00042F4004242F0800223F82420E1E70B7BE4
:1053F000002B46D14B7813B30A7830F8223013F0E3
:10540000400F0CD030F822309BB223F4E04323F05D
:10541000700343F4004343F0C00320F822300A78BD
:1054200030F822309BB223F4E04323F0400343F4EE
:10543000004343F0800320F82230002070470A78B0
:1054400030F8223013F4804F0CD030F822309BB269
:1054500023F4E04323F0700343F4404343F080031C
:1054600020F822300A7830F822309BB223F48043AF
:1054700023F0700343F4004343F0800320F822300C
:10548000DBE74B78002B4ED10A7830F8223013F44A
:10549000804F0CD030F822309BB223F4E04323F04D
:1054A000700343F4404343F0800320F822300A782D
:1054B00030F8223013F0400F0CD030F822309BB27D
:1054C00023F4E04323F0700343F4004343F0C003AC
:1054D00020F822300A7830F822309BB223F4E043DF
:1054E00023F0700343F4004343F0C00320F822305C
:1054F0000A7830F822309BB223F4804323F0700303
:1055000048F2800C43EA0C0320F822300A7830F885
:1055100022309BB223F4E04323F0400343EA0C0320
:1055200020F8223089E70A7830F8223013F4804FCF
:105530000CD030F822309BB223F4E04323F0700308
:1055400043F4404343F0800320F822300A7830F8D7
:10555000223013F0400F0CD030F822309BB223F4ED
:10556000E04323F0700343F4004343F0C00320F80A
:1055700022300A7830F822309BB223F4E04323F043
:10558000700343F4404343F0800320F822300A784C
:1055900030F822309BB223F4E04323F0400348F27A
:1055A000800C43EA0C0320F822300A7830F82230CD
:1055B0009BB223F4804323F0700343EA0C0320F8EA
:1055C00022303AE74B788BB10A7830F822309BB220
:1055D00023F4E04323F0400383F0100343F400433B
:1055E00043F0800320F82230002070470A7830F81A
:1055F00022309BB223F4804323F0700383F4805362
:1056000043F4004343F0800320F82230ECE70B7BA7
:10561000002B4BD14B7833B30A7830F8223013F09B
:10562000400F0CD030F822309BB223F4E04323F03B
:10563000700343F4004343F0C00320F82230CB78DA
:10564000012B33D00A7830F822309BB223F4E043A8
:1056500023F0400383F0200343F4004343F080032E
:1056600020F8223022E00A7830F8223013F4804FFC
:105670000CD030F822309BB223F4E04323F07003C7
:1056800043F4404343F0800320F822300A7830F896
:1056900022309BB223F4804323F0700383F4405301
:1056A00043F4004343F0800320F822300020704789
:1056B00011B98023A0F84C300020704700207047BB
:1056C000B0F8440080B2704701335B0800EB420041
:1056D00000F5806008E00A7891F801C042EA0C22E7
:1056E00020F8042B0231013B002BF4D1704770B538
:1056F00005460C464A78012A37D00B7B002B40F038
:1057000085828B690A69934240F263829B1A8B619E
:10571000B5F8503015FA83F3217803EB0113002A12
:1057200040F05B82B3F80C2492B222F4F84292B2B9
:10573000A3F80C24B3F80C246FEA42426FEA5242F9
:1057400092B2A3F80C24227835F822309BB223F4CD
:10575000804323F0700383F4405343F4004343F049
:10576000800325F82230002070BD8E6909698E42C1
:1057700000D90E46237B53B3E378022B49D0236A2A
:105780009B1B2362237835F8231011F0400F00F0A3
:10579000DD81002A40F0CA81B5F8502015FA82F266
:1057A00002EB0313002E40F0A881B3F80C2492B250
:1057B00022F4F84292B2A3F80C24B3F80C246FEA56
:1057C00042426FEA524292B2A3F80C24B7E1B6B259
:1057D0003346E28861692846FFF776FFB5F8503016
:1057E00015FA83F3227803EB0213A3F804642278FA
:1057F00035F822309BB223F4E04323F0400383F0DA
:10580000300343F4004343F0800325F822300020A6
:10581000AAE7236A994280F05281227835F8223033
:105820009BB223F4E04323F0700343F4014343F0BD
:10583000800325F82230236A9B1B2362237835F8E6
:10584000232012F0400F00F09D8062788ABBB5F8EB
:10585000502015FA82F202EB03138EB9B3F80C2430
:1058600092B222F4F84292B2A3F80C24B3F80C24BA
:105870006FEA42426FEA524292B2A3F80C241AE055
:105880003E2E09D8720816F0010F00D001329202A4
:1058900092B2A3F80C240EE0720916F01F0F00D18B
:1058A000013A6FEAC2626FEA524292B2A3F80C2444
:1058B00001E0012A2BD0B3B2628961692846FFF763
:1058C00003FF636933446361236A2269934228D9E1
:1058D0009B1B23626378002B40D1B5F8503015FA3A
:1058E00083F3227803EB0213FEB9B3F8042492B2D7
:1058F00022F4F84292B2A3F80424B3F804246FEA25
:1059000042426FEA524292B2A3F8042428E0B5F86A
:10591000502015FA82F202EB0313B2B2A3F80C2462
:10592000C9E7002222621E46D4E73E2E09D872083B
:1059300016F0010F00D00132920292B2A3F80424B3
:105940000EE0720916F01F0F00D1013A6FEAC26231
:105950006FEA524292B2A3F8042401E0012B06D070
:10596000B3B2228961692846FFF7AEFE3FE7B5F87A
:10597000503015FA83F3227803EB0213B2B2A3F886
:105980000424EDE762788ABBB5F8502015FA82F25C
:1059900002EB03138EB9B3F8042492B222F4F84256
:1059A00092B2A3F80424B3F804246FEA42426FEAE7
:1059B000524292B2A3F804241AE03E2E09D872088B
:1059C00016F0010F00D00132920292B2A3F8042423
:1059D0000EE0720916F01F0F00D1013A6FEAC262A1
:1059E0006FEA524292B2A3F8042401E0012A2BD0BC
:1059F000B3B2228961692846FFF766FE63693344C2
:105A00006361236A2269934228D99B1B23626378CE
:105A1000002B40D1B5F8503015FA83F3227803EB10
:105A20000213FEB9B3F80C2492B222F4F84292B2F7
:105A3000A3F80C24B3F80C246FEA42426FEA5242F6
:105A400092B2A3F80C2428E0B5F8502015FA82F29F
:105A500002EB0313B2B2A3F80424C9E700222262C6
:105A60001E46D4E73E2E09D8720816F0010F00D06A
:105A70000132920292B2A3F80C240EE0720916F0E1
:105A80001F0F00D1013A6FEAC2626FEA524292B22E
:105A9000A3F80C2401E0012B06D0B3B2628961693E
:105AA0002846FFF711FEA2E6B5F8503015FA83F349
:105AB000227803EB0213B2B2A3F80C24EDE72178AD
:105AC00035F8212092B222F4E24222F0700242F430
:105AD000004242F0800225F82120B5F8502015FA46
:105AE00082F2217802EB01129BB2A2F804342289DF
:105AF00061692846FFF7E8FD79E63E2E09D872086D
:105B000016F0010F00D00132920292B2A3F80C24D9
